:1000000002308A00172A00000A108A100A1182079B
:100010000C3400340A108A100A118207203420346C
:1000200048346F346C346134203471347534653441
:100030002034743461346C343F3400340A108A1034
:100040000A11820720342034503461347234613410
:1000500020347334653472347634693472347434D1
:1000600065342E3400340A108A100A1182072034B5
:1000700020344D34693420346E346F346D3462343E
:10008000723465342034653473343A3400340A10E1
:100090008A100A1182072034203420345434653405
:1000A0006D3470346F342D3450346934633400341B
:1000B0000A108A100A11820748346F34723461348E
:1000C00073343A34203425343034323475340034C7
:1000D0000A108A100A1182074D3469346E343A349A
:1000E00020342534303432347534003418308400F0
:1000F00000080319892801308D008C018C0B7E28A3
:100100008D0B7D284A308C008C0B84288728800B2F
:100110007B2808001D0EF0398C000F3006050C04FA
:1001200086000000061494280610080006088C00BB
:10013000060E0F398D000800831606108610061172
:10014000831286100F3083160605F038860083125E
:10015000061500000614000096200D089D000610EC
:1001600000000614000096200D089C0006100F30B9
:1001700083160605860083121D0E8C00F0308C0558
:100180000C081C048D000D089C009C1BA2281A1C46
:1001900086101A18861400000611000006101B0EA7
:1001A0009C000F309C051C089D008A201B080F39FD
:1001B0009C009D008A200800283094000C30950097
:1001C00001309600063097000610861006110F3099
:1001D0008316060586000610861006110F3083125E
:1001E00098007620013093001308033C031C00297B
:1001F00003309D008A20053098007620930AF42869
:1002000002309D008A200530980076209301130863
:10021000033C031C162914301307840000089800BF
:100220009A0118089B009C20930A0729262A170B7D
:100230001A291D29403098001E2998010130160204
:1002400098071808803899009A0119089B009C208B
:1002500008001508073A031937290B3A03193C29F6
:10026000063A03194429023A03194A294F29013051
:1002700096009700172154299A0101309B009C2079
:100280000230980076205429013096000230970001
:10029000172154299A0110309B009C2054290130C9
:1002A0009A0015089B009C20080016088D01150275
:1002B00003185D2915088C0069298C010830970006
:1002C000950D8C0D16080C0203188C008D0D970BE4
:1002D000602908000D081308950064309600552128
:1002E0000C0893000D083030031D7D29941C8429CF
:1002F00094198429141A203080299411141214148A
:100300008D070D0895002921130895000A309600E5
:1003100055210C0893000D083030031D95299419C0
:100320009929141C9929141A20308D070D0895005D
:100330002921303093071308950029210800013046
:10034000960097001721930113085820930A8C00F8
:100350009500292107301302031DA42911089300D9
:10036000013094006A210130960002309700172175
:10037000930113086820930A8C0095002921053009
:100380001302031DB92910089300013094006A215B
:100390008D2A10083A3C031CCF29900AD0299001DD
:1003A000962A1108163C031CD729910AD8299101D5
:1003B0009F2A9108031D9103080090080319E22960
:1003C0009003E82991080319E8293B309000D921CE
:1003D000A82A92080319EE290030EF290130920073
:1003E000120BF7298316861183128615FB298316B3
:1003F000861183128611BA2A930113083B3C031C11
:100400000A2A04309400FA3098007620940B032ACC
:10041000930AFD29BD2A90080319102A9003162A71
:1004200091080319162A91033B309000BE2A030855
:100430001F3983009001910192011F3083168500BE
:1004400000308600860183128601DC2893011308A0
:10045000042000380319302A930A95002921272AFD
:100460000130960097001721930113080A200038E5
:1004700003193E2A930A95002921352A0130960056
:10048000023097001721930113081E20003803192A
:100490004D2A930A95002921442A0C309300FA3002
:1004A00098007620930B4F2A9301130804200038FC
:1004B00003195E2A930A95002921552A01309600D6
:1004C00097001721930113083320003803196C2A71
:1004D000930A95002921632A013096000230970083
:1004E0001721930113084720003803197B2A930A28
:1004F00095002921722A0C309300FA30980076205A
:10050000930B7D2A930113080420003803198C2AC9
:10051000930A95002921832A9F29831605148312A3
:10052000051C962AC83098007620C92983168514A0
:100530008312851C9F2AC83098007620D129831603
:1005400085158312851DA82AC83098007620DD29DC
:10055000831605168312051EB12AC830980076202E
:10056000D921831605158312051DBA2AC8309800B3
:100570007620E929120BC92AFC290B2A9108031DB0
:10058000C92A9008031DC92A831686118312861171
:0605900092018C2A6300B9
:02400E00F13F80
:00000001FF
;PIC16F84A
;CRC=E924  CREATED="29-sept.-24 13:49"
